:020000040000FA
:0600000045EF1EF01200A6
:0600080004EF08F01200F5
:060018000CEF08F01200DD
:0610000045EF1EF0120096
:0610080003EF18F01200D6
:061018000CEF18F01200BD
:06102A000100D83C0000AB
:08103000F000000005000000C3
:08103800D9CFE6FFE1CFD9FF9B
:10104000E652A09A6A6A686A706A010EE66EE66AFB
:10105000E66A710EE66E0F0EE66EEBEC1CF0146E97
:10106000050EE15E1450160E6F6E9F0E6B6E7B0EBA
:10107000696EDF6ADF50146E156A080E145C000E8C
:10108000155810E2DF50040DF3CFE9FFF4CFEAFF6B
:10109000000EE926040EEA22EE6AEE6AEE6AEE6AB5
:1010A000DF2AE8D76D8C6E6A6D986D9C68A607D0B4
:1010B00068960101566B5B6B5C6B5D6BF7D701014A
:1010C000010E6E6F6F6F706B716B646BDF6A020E77
:1010D000DF5C26E2EA6ADF34FE0BEA36E96E4D0E8B
:1010E000E926010EEA22EE6AED6AEA6ADF34FE0BB7
:1010F000EA36E96E490EE926010EEA22EE6AED6A49
:10110000DF50EA6A680FE96E010EEA22EF6ADF50EB
:10111000EA6A6A0FE96E010EEA22EF6ADF2AD7D780
:101120000101080E4D6F040E4E6F160E706E040115
:10113000200E026F040E036F080E016F840E006F05
:101140000101436B426BE552E552E7CFD9FF120034
:10115000D9CFE6FFE1CFD9FFE6520101425116E1B6
:1011600006D06D6A696A0101426BA19AB9D06D6AB5
:10117000696A160E6F6E9F0E6B6E7B0E696E6DB692
:1011800002D06D86FCD70101010E426F420508E1D5
:101190006DBA06D0686A696A69806988020E426F12
:1011A0006850040B05E06950040B02E06894CBD84A
:1011B0006DA202D0A19A94D06850010B08E069504A
:1011C000010B05E039DF0101040E426F68906850A1
:1011D000100B05E06950100B02E0A0D8689868ACCD
:1011E00019D069AC0FD0010EE66EE66A000EE66E0D
:1011F000E66A730EE66EE66AA3EC19F0146E060E4C
:10120000E15E1450689C01016C5101E06C076C5167
:1012100001E177DB6850200B04E06950200B01E00E
:1012200064D86850020B13E06950020B10E0010E05
:10123000E66EE66A000EE66EE66AE6687F0EE66E29
:10124000A3EC19F0146E060EE15E14506A6A040EE7
:101250000101E76E4219E8AE02D0E73402D0E75050
:10126000425D02E2A19A3CD069A639D0DF6A040E41
:10127000DF5C35E268A630D06CCF65F101016551C5
:10128000780BE842E842E842666F689665B508D098
:101290006651EA6A6A0FE96E010EEA22EF7007D022
:1012A0006651EA6A680FE96E010EEA22EF70665134
:1012B00002E160D810D0000EE66EE66A650EE66EBA
:1012C000010EE66E720EE66EE66AA3EC19F0146E7D
:1012D000060EE15E145001D002D0DF2AC8D7A19AD1
:1012E000E552E552E7CFD9FF120070A015D045C1F5
:1012F000E9FF46C1EAFFEF5080080DE14DC1E9FF6B
:101300004EC1EAFFEF50840806E145C1E9FF46C13E
:10131000EAFF8C0EEF6E7090689A120069846898EC
:101320006D820101010E646F000EE66EE66AE66EE4
:10133000E66A750EE66EE66AA3EC19F0146E060E08
:10134000E15E145012000101646B000EE66EE66A65
:10135000E66EE66A740EE66EE66AA3EC19F0146EA9
:10136000060EE15E14506D92699468A402D06894F0
:10137000FCD71200D9CFE6FFE1CFD9FFE652010139
:101380002D0E6C6FFD0E651553E17E0E6515E84060
:101390007F0B040DF3CF45F1F4CF46F1000E452746
:1013A000040E462345C147F146C148F1477545C182
:1013B000E9FF46C1EAFFEF503C0BE842E8420D0866
:1013C00035E1DF6A080EDF5C23E245C1E9FF46C173
:1013D000EAFF020EE926000EEA22EE50EFCFEAFF06
:1013E000E96EEF50E66EDF50EA6A200FE96E040EF8
:1013F000EA22E552E750EF6E45C1E9FF46C1EAFF38
:10140000020EE926000EEA22EE2AEF22DF2ADAD7C0
:1014100045C1E9FF46C1EAFF020EE926000EEA22B5
:10142000200EEE6E040EED6E0DD801D03AD805D028
:10143000FD0E6515040801E15AD8E552E552E7CFE3
:10144000D9FF12000101516B6D6B706B716B676B93
:10145000526B4DC1E9FF4EC1EAFFEF9E4D754DC184
:10146000E9FF4EC1EAFFEF9E4D7547C1E9FF48C154
:10147000EAFFEF9E566B576B586B5B6B5C6B5D6B5B
:1014800094D8000EE66EE66AE66EE66A030EE66E35
:10149000E66AA3EC19F0146E060EE15E14502CEF10
:1014A0000EF0020E0101525D03E1F2EC0EF01ED0CF
:1014B000526B67511AE147C1E9FF48C1EAFFEE529A
:1014C000080EEF6E47C1E9FF48C1EAFF020EE926A8
:1014D000000EEA22200EEE6E040EED6E47C1E9FF0B
:1014E00048C1EAFF8C0EEF6E01D0676B1200D9CFB6
:1014F000E6FFE1CFD9FFE6524DC1E9FF4EC1EAFF59
:10150000EF50400B01E0010EDF6E01014D75080E3A
:10151000425D09E122C46EFF6E5003E0100E426F7F
:1015200002D0040E426F520529E14DC1E9FF4EC1C0
:10153000EAFF020EE926000EEA22280EEE6E040EE5
:10154000ED6E8DEC0EF0020E0101515D07E14DC113
:10155000E9FF4EC1EAFF840EEF6E0FD0DF5007E1C6
:101560004DC1E9FF4EC1EAFFC80EEF6E06D04DC176
:10157000E9FF4EC1EAFF880EEF6E12D05BAF0FD0CD
:101580005E515F11601109E007D060C1FBFF5FC1D0
:10159000FAFF01015E51F96EF8DF01015B9F526BAA
:1015A000E552E552E7CFD9FF120004012051600B4C
:1015B000E842E842E842E842E842000901E059D046
:1015C00021510C0A55E00B0A44E00C0A36E0010AEE
:1015D00027E00B0A23E0020A21E0030A1DE0080AC3
:1015E00011E0010A0CE00F0A08E0030A01E040D014
:1015F0000101568F080E426F3CD014DA3AD095ECB8
:101600000FF037D00101430E536F010E546F568116
:10161000010E576F568F2DD0B7DA2BD02BD829D08B
:1016200024510101536F546B440E5327010E542370
:101630005681010E576F568F1CD00101568F040141
:101640002451EA6A440FE96E010EEA2222C4EFFF38
:1016500010D0000EE66EE66AE66EE66A020EE66EF0
:10166000E66AA3EC19F0146E060EE15E145001D088
:1016700000D01200D9CFE6FFE1CFD9FF050EE12659
:101680000401220510E120511F0B00090CE10101AA
:10169000568F030E0401215D04E10101010E636F09
:1016A00002D00101636B0401225101E020D12051DD
:1016B0001F0B020801E01BD124510F0B000901E1AF
:1016C00016D124510F0B010801E211D1200E0101A6
:1016D000425D01E00CD1568F040124BF1AD0245181
:1016E0000F0BE96EEA6AD890E936EA36490EE92628
:1016F000010EEA22EECFDEFFEDCFDDFF24510F0B0E
:10170000EA6A6A0FE96E010EEA22020EEFCFDBFFF2
:1017100019D024510F0BE96EEA6AD890E936EA36FF
:101720004D0EE926010EEA22EECFDEFFEDCFDDFF02
:1017300024510F0BEA6A680FE96E010EEA22020ECD
:10174000EFCFDBFFD950020FE96EDACFEAFFEF509F
:10175000010B03E1000EDF9401D0DF8424BF10D021
:1017600024510F0BE96EEA6AD890E936EA36490E41
:10177000E926010EEA22DECFEEFFDDCFEDFF0FD02E
:1017800024510F0BE96EEA6AD890E936EA364D0E1D
:10179000E926010EEA22DECFEEFFDDCFEDFF030EDC
:1017A000215D23E1DECFE9FFDDCFEAFFEF50800BC3
:1017B00013E024BF09D024510F0BEA6A6A0FE96EC7
:1017C000010EEA22EF8208D024510F0BEA6A680F5B
:1017D000E96E010EEA22EF82840E146EDECFE9FF7D
:1017E000DDCFEAFF1450EF1282D0DF74DECFE9FFC5
:1017F000DDCFEAFFEF50800B1BE0DECFE9FFDDCF4E
:10180000EAFFEF9EDECFE9FFDDCFEAFFEF8C020EAD
:10181000E66EE66ADECFE6FFDDCFE6FF050EE66E9A
:10182000E66AA3EC19F0146E060EE15E145005D0C2
:10183000DECFE9FFDDCFEAFFEF8CDF74D950020F76
:10184000E96EDACFEAFFEF50020B07E1DECFE9FFE6
:10185000DDCFEAFFEF50800B2DE0040124BF09D05B
:1018600024510F0BEA6A6A0FE96E010EEA22EF9229
:1018700008D024510F0BEA6A680FE96E010EEA22C4
:10188000EF923B0E146EDECFE9FFDDCFEAFF14507E
:10189000EF16020EE66EE66ADECFE6FFDDCFE6FF6C
:1018A000050EE66EE66AA3EC19F0146E060EE15E14
:1018B000145008D03B0E146EDECFE9FFDDCFEAFFF7
:1018C0001450EF16040124510F0B156A700F146E9B
:1018D0000F0E1522030E14C0DBFF040E15C0DBFF34
:1018E000030EDBCFE9FF040EDBCFEAFFEF90050E1E
:1018F000E15C02E2E16AE552E16EE552E7CFD9FF31
:10190000120001016E514DE1010E6E6F6F5149E100
:10191000010E6F6F020E525D0DE14DC1E9FF4EC128
:10192000EAFFEE52EF6A4DC1E9FF4EC1EAFFC80E71
:10193000EF6E37D0520535E1676B45C1E9FF46C10F
:10194000EAFFEE52080EEF6E45C1E9FF46C1EAFF1D
:10195000020EE926000EEA22200EEE6E040EED6E57
:1019600045C1E9FF46C1EAFF840EEF6E010E676FC5
:1019700047C1E9FF48C1EAFFEE52080EEF6E47C1CA
:10198000E9FF48C1EAFF020EE926000EEA22200E16
:10199000EE6E040EED6E47C1E9FF48C1EAFF800E0E
:1019A000EF6E12000101706B716B020E525D1AE155
:1019B00047C1E9FF48C1EAFFEE52080EEF6E47C18A
:1019C000E9FF48C1EAFF020EE926000EEA22280ECE
:1019D000EE6E040EED6E47C1E9FF48C1EAFFC80E86
:1019E000EF6E1FD057510401265D010158510401CB
:1019F000275904E226C457F127C458F18ED94DC1A6
:101A0000E9FF4EC1EAFF020EE926000EEA22280E87
:101A1000EE6E040EED6E4DC1E9FF4EC1EAFFC80E39
:101A2000EF6E1200800E0401205D01E0ACD00101D8
:101A3000C00E566F04012351030A61E0010A10E051
:101A4000030A03E00101566B9ED00101D20E536FD1
:101A5000370E546F000E556F120E576F586B93D0A0
:101A60007D0E146E380E156E000E166E22C417F021
:101A7000186A196A030E0C6E0D6A0E6A17C007F019
:101A800018C008F019C009F000EC1BF004C017F0F2
:101A900005C018F006C019F014501724F36E155045
:101AA0001820F46E16501920F86EF4CFF7FFF3CF1C
:101AB000F6FF0900F5CF53F10900F5CF54F1080006
:101AC000F5CF55F153C1F6FF54C1F7FF55C1F8FFEB
:101AD000020EF626000EF722F8220800F5CF57F185
:101AE00053C1F6FF54C1F7FF55C1F8FF030EF626A8
:101AF000000EF722F8220800F5CF58F144D0030E6B
:101B0000225D3EE2800E146E380E156E000E166ECB
:101B100022C417F0186A196A030E0C6E0D6A0E6A59
:101B200017C007F018C008F019C009F000EC1BF04E
:101B300004C017F005C018F006C019F0145017249F
:101B4000F36E15501820F46E16501920F86EF4CF6D
:101B5000F7FFF3CFF6FF0900F5CF53F10900F5CFFA
:101B600054F10800F5CF55F153C1F6FF54C1F7FF0A
:101B700055C1F8FF0800F5500101576F586B02D0AE
:101B80000101566B00D01200D9CFE6FFE1CFD9FF9B
:101B9000020EE1260401286B296B20511F0B020A5B
:101BA00012E0030A0DE0010A01E042D00101568F64
:101BB000040128810101630502E10401288338D072
:101BC0000101568F35D00101568F040124BF10D07A
:101BD00024510F0BE96EEA6AD890E936EA36490ECD
:101BE000E926010EEA22EECFDEFFEDCFDDFF0FD0BA
:101BF00024510F0BE96EEA6AD890E936EA364D0EA9
:101C0000E926010EEA22EECFDEFFEDCFDDFFDECFCB
:101C1000E9FFDDCFEAFFEF50800B09E0DECFE9FFFF
:101C2000DDCFEAFFEF50040B02E0010E286F00D079
:101C3000010156AF07D0280E536F040E546F568122
:101C4000020E576F020EE15C02E2E16AE552E16EBC
:101C5000E552E7CFD9FF12006D98010156BF2BD096
:101C60005BAF09D0020E526F715101E19BDE0101A1
:101C70006F6B6E6B1FD047C1E9FF48C1EAFFEE52A0
:101C8000080EEF6E47C1E9FF48C1EAFF020EE926E0
:101C9000000EEA22200EEE6E040EED6E47C1E9FF43
:101CA00048C1EAFF8C0EEF6E4DC1E9FF4EC1EAFF5D
:101CB000840EEF6E31D0040120AF0DD00101010E72
:101CC000526F705101E16EDE01016F6B6E6B6D51F1
:101CD00001E117DE21D00101020E526F47C1E9FF79
:101CE00048C1EAFFEE52080EEF6E47C1E9FF48C156
:101CF000EAFF020EE926000EEA22200EEE6E040E26
:101D0000ED6E47C1E9FF48C1EAFF840EEF6E6F6BCD
:101D10006E6B6D5101E1F5DD1200D9CFE6FFE1CF29
:101D2000D9FFE652080EDF6E0101575D000E5859CB
:101D30000BE257C1DFFF515103E1010E516F04D097
:101D4000510502E1020E516FDF50146E156A1450F6
:101D5000575D576F15505859586F4DC1E9FF4EC127
:101D6000EAFFEE52DFCFEFFF280E616F040E626FC5
:101D700056B11CD0DF5019E053C1F6FF532B54C1AC
:101D8000F7FF000E542355C1F8FF55230800F55006
:101D9000E66E61C1E9FF62C1EAFF612B000E6223BA
:101DA000E552E750EF6EDF06E5D717D0DF5015E0BC
:101DB00053C1E9FF54C1EAFF532B000E5423EF50E7
:101DC000E66E61C1E9FF62C1EAFF612B000E62238A
:101DD000E552E750EF6EDF06E9D7E552E552E7CF6F
:101DE000D9FF1200D9CFE6FFE1CFD9FF020EE126DD
:101DF00045C1E9FF46C1EAFFEE52EFCFDFFFDFCF7B
:101E000014F0145001015C5D000E5D5902E25CC1EA
:101E1000DFFFDF50146E156A14505C5D5C6F155067
:101E20005D595D6F010EDB6ADF50F36E010EDBCF93
:101E3000F4FFF350F45C16E2010EDB50EA6A280F5F
:101E4000E96E040EEA22EF50E66E59C1E9FF5AC16D
:101E5000EAFF592B000E5A23E552E750EF6E010EB0
:101E6000DB2AE2D7000ED8805C55000E5D5528E2D3
:101E700047C1E9FF48C1EAFFEE52080EEF6E47C1C5
:101E8000E9FF48C1EAFF020EE926000EEA22280E09
:101E9000EE6E040EED6E45C1E9FF46C1EAFFEF505C
:101EA000400B07E147C1E9FF48C1EAFFC80EEF6EEA
:101EB00006D047C1E9FF48C1EAFF880EEF6E2BD07C
:101EC00047C1E9FF48C1EAFFEE52080EEF6E47C175
:101ED000E9FF48C1EAFF020EE926000EEA22200EC1
:101EE000EE6E040EED6E47C1E9FF48C1EAFF840EB5
:101EF000EF6E5E515F11601109E007D060C1FBFF1A
:101F00005FC1FAFF01015E51F96EF8DF01015B9FCD
:101F10006D5101E1F6DC020EE15C02E2E16AE5529C
:101F2000E16EE552E7CFD9FF1200D9CFE6FFE1CF4E
:101F3000D9FFE6520101568F010EE66EE66AE66AA7
:101F4000710EE66E0F0EE66EEBEC1CF0146E050ED5
:101F5000E15E1450DF6ADF50146E156A080E145CDF
:101F6000000E155810E2DF50040DF3CFE9FFF4CF57
:101F7000EAFF000EE926040EEA22EE6AEE6AEE6A35
:101F8000EE6ADF2AE8D76D8CDF6A020EDF5C10E2B2
:101F9000DF50EA6A680FE96E010EEA22EF6ADF504D
:101FA000EA6A6A0FE96E010EEA22EF6ADF2AEDD7CC
:101FB000010EE66EE66AE66A440EE66E010EE66E15
:101FC000EBEC1CF0146E050EE15E14506D9C0101EB
:101FD000080E4D6F040E4E6F000E456F040E466FD7
:101FE00045C147F146C148F122C443F1435103E1E1
:101FF000100E426F13D0010EE66EE66A430EE66ED7
:10200000010EE66E010EE66EE66AA3EC19F0146EA0
:10201000060EE15E14500101200E426FE552E552BA
:10202000E7CFD9FF1200D9CFE6FFE1CFD9FF020EEB
:10203000E126000EDE6E040EDD6EFD0EDB50E824A0
:10204000166EFE0EDB50040DF3501624040DF3CF74
:1020500014F0F4CF15F0D9CFE9FFDACFEAFF14502E
:10206000EE261550ED22DECFE9FFDDCFEAFFEF9E31
:10207000FD0EDB500FE1FE0EEA6ADB34FE0BEA36A2
:10208000E96E490EE926010EEA22DECFEEFFDDCF32
:10209000EDFF0ED0FE0EEA6ADB34FE0BEA36E96E87
:1020A0004D0EE926010EEA22DECFEEFFDDCFEDFF79
:1020B000DECFE9FFDDCFEAFFEF9CDECFE9FFDDCF2A
:1020C000EAFF040EE926000EEA22EF8C020EE15C24
:1020D00002E2E16AE552E16EE552E7CFD9FF120074
:1020E000D9CFE6FFE1CFD9FF020EE126FD0EDBA43A
:1020F00007D0E66AFE0EDBCFE6FF95DFE552E5523C
:10210000FD0EDBA208D0010EE66EFE0EDBCFE6FF71
:102110008ADFE552E552FE0EDB50156A700F146E31
:102120000F0E152214C0DEFF15C0DDFFDECFE9FF64
:10213000DDCFEAFFFD0EDBCFEFFF020EE15C02E236
:10214000E16AE552E16EE552E7CFD9FF1200D9CF3F
:10215000E6FFE1CFD9FF020EE126FE0EDB5020E1C3
:1021600047C1E9FF48C1EAFFEE52080EEF6E47C1D2
:10217000E9FF48C1EAFF020EE926000EEA22200E1E
:10218000EE6E040EED6E47C1E9FF48C1EAFF8C0E0A
:10219000EF6E4DC1E9FF4EC1EAFF840EEF6E3DD0F8
:1021A000FD0EDB50E824166EFE0EDB50040DF350DE
:1021B0001624040DF3CF14F0F4CF15F0000E1426FE
:1021C000040E152214C0DEFF15C0DDFF840E146E50
:1021D000DECFE9FFDDCFEAFF1450EF12FD0EDB503A
:1021E000E824166EFE0EDB50040DF3501624010F8A
:1021F000040DF3CF14F0F4CF15F0000E1426040EE6
:10220000152214C0DEFF15C0DDFF840E146EDECF74
:10221000E9FFDDCFEAFF1450EF12020EE15C02E2AB
:10222000E16AE552E16EE552E7CFD9FF1200D9CF5E
:10223000E6FFE1CFD9FF020EE126FD0EDB500FE0F5
:10224000FE0EEA6ADB34FE0BEA36E96E4D0EE92635
:10225000010EEA22EECFDEFFEDCFDDFF0ED0FE0E47
:10226000EA6ADB34FE0BEA36E96E490EE926010E16
:10227000EA22EECFDEFFEDCFDDFFD9CFE9FFDACFE7
:10228000EAFFEE50ED1003E1F36AF46A49D0DECFC5
:10229000E9FFDDCFEAFF020EE926000EEA22FB0E7F
:1022A000DBCFEEFFFC0EDBCFEDFFDECFE9FFDDCFB6
:1022B000EAFFEE52FA0EDBCFEFFF400E146EDECFD8
:1022C000E9FFDDCFEAFF1450EF16880E146EDECF63
:1022D000E9FFDDCFEAFF1450EF12FD0EDB500CE0FA
:1022E000FE0EEA6ADB34FE0BEA36E96E4D0EE92695
:1022F000010EEA22EF740BD0FE0EEA6ADB34FE0B0D
:10230000EA36E96E490EE926010EEA22EF74DECFC5
:1023100014F0DDCF15F014C0F3FF15C0F4FF00D0AA
:10232000020EE15C02E2E16AE552E16EE552E7CFBE
:10233000D9FF1200D9CFE6FFE1CFD9FF6DA84ED06B
:10234000FE0EEA6ADB34FE0BEA36E96E4D0EE92634
:10235000010EEA22EE50EFCFEAFFE96E400EEE16D4
:10236000EE6AEE6AEE6AFE0EEA6ADB34FE0BEA36CD
:10237000E96E4D0EE926010EEA22EE50EFCFEAFF9C
:10238000E96EEE7CFE0EEA6ADB34FE0BEA36E96E9D
:102390004D0EE926010EEA22EF74400E146EFE0E79
:1023A000EA6ADB34FE0BEA36E96E4D0EE926010ED1
:1023B000EA22EE50EFCFEAFFE96E1450EF16FE0E60
:1023C000EA6ADB34FE0BEA36E96E4D0EE926010EB1
:1023D000EA22EE50EFCFEAFFE96EEF7CE552E7CF5D
:0423E000D9FF12000F
:0C23E4002EEC17F0FB0EDBCFF3FFDB0646
:1023F000F35000090AE07CEC17F0FA0EE7EC17F056
:10240000F3E1151CF1E1010E01D0000E5DEF17F0B4
:102410002EEC17F03B0EE12402E3E168E652E16E98
:10242000010EDB6A020EDB6AF90EDBCFF6FFFA0E55
:10243000DBCFF7FFFB0EDBCFF8FF0800F550DF6EB8
:10244000DF5002E181EF16F0250EDF5C02E074EF51
:1024500016F0030EDB6A040EDB6A050EDB6A060E5D
:10246000DB6A070EDB6A96EC16F02D0EDF5C0CE0E3
:102470002B0EDF5C09E0200EDF5C06E0230EDF5C44
:1024800003E0300EDF5C1AE1DF50300A14E0130A7B
:102490000FE0030A0AE00B0A05E0060AE4E1030E76
:1024A000DB80E1D7030EDB82DED7030EDB84DBD7D4
:1024B000030EDB86D8D7030EDB88D5D72A0EDF5C68
:1024C0001BE192EC16F0E0EC16F010E0030EDB805E
:1024D00008680968130EDBCF0DF0140EDBCF0EF089
:1024E00049EC1BF0040E06C0DBFF03D0130EC9EC51
:1024F00016F096EC16F00BD0090EDB6A37EC17F0ED
:1025000003E0ABEC17F0FAD7090EC9EC16F0030E96
:10251000DBB0DB982E0EDF5C1BE196EC16F02A0E8A
:10252000DF5C0BE192EC16F0E0EC16F003E1130E29
:102530001BEC17F096EC16F00BD0090EDB6A37ECAB
:1025400017F003E0ABEC17F0FAD7090E1BEC17F00D
:10255000680EDF5C07E196EC16F0680EDF5C1DE1AB
:10256000030E18D0740EDF5C17E07A0EDF5C14E007
:10257000480EDF5C06E0540EDF5C03E05A0EDF5CC1
:1025800002E1020E07D06C0EDF5C03E06A0EDF5C36
:1025900004E1010E6EEC17F0C9DBDF506E0A01E1B9
:1025A0007FD31E0A01E192D1200A01E18FD13F0AB7
:1025B00001E149D11A0A01E146D10D0A01E143D1F5
:1025C000200A01E140D13A0A01E13DD1200A01E1AE
:1025D0003AD1260A01E135D10D0A01E132D11A0AB8
:1025E00001E1D9D0200A4AE0300A1FE0460A0EE095
:1025F000250A01E083D3D950F90FE96EFF0EDA20E6
:10260000EA6E010EEE5E000EEE5AEE5A7CEC17F00A
:10261000250EE66E95DB03E1151C01E169D378EC2C
:1026200017F001E26BD3DB2A69D3080EDB6A040ED4
:10263000DB50010806E2040EDB0440EC17F0DB502F
:102640008BDB080EDB5009E0030EDB50010B05E1CC
:1026500072DB01E04DD3080EDB6A64DBEFCFDFFFF6
:10266000F0EC17F003E1151C01E142D378EC17F010
:1026700001E3DB2A60DB01E141D33AD3070EDB50F3
:1026800002080FE1BCEC17F0030E83EC17F00E0EFE
:10269000EECFDBFF0F0EEECFDBFF100EEECFDBFF3A
:1026A00020D0F70EDBCF17F0F80EDBCF18F0020EBC
:1026B000175E000E185AF70E17C0DBFFF80E18C091
:1026C000DBFF17C0E9FF18C0EAFF73EC17F0166ACA
:1026D0000E0E14C0DBFF0F0E15C0DBFF100E16C070
:1026E000DBFF0E0EDBCFE6FF0F0EDBCFE6FF100E9B
:1026F000DBCFE6FF13EC1DF0E552E552E552130E79
:1027000007C0DBFF140E08C0DBFF060EDB5005E040
:10271000130EB7EC17F001E26ADBDBEC17F002E214
:10272000130E37DB9EEC17F006E0040EB7EC17F043
:1027300002E2050E2EDB030EDBB005D0FCDA01E071
:10274000D7D2080EDB6A090EDB6A0E0EDBCFF6FF6E
:102750000F0EDBCFF7FF100EDBCFF8FF0800F550B0
:10276000DF6EDF5014E0E1EC17F011E2F0EC17F04F
:1027700003E1151C01E1BCD2BBDB01E3DB2A090E3E
:10278000DB2AD9500E0FE96E000ECBDBE7D7D3DA88
:1027900001E1B4D2ADD2C6DA110EEECFDBFF120EDC
:1027A000EDCFDBFF110EDBCFE6FF120EDBCFE6FF36
:1027B00005EC1DF0E552E552130EF3CFDBFF140ECE
:1027C000F4CFDBFF060EDB5004E0130ED0DB01E29A
:1027D0000EDBDBEC17F002E2130EDBDAAFDB05E019
:1027E000040EC5DB02E2050ED4DA030EDBB005D021
:1027F000A2DA01E07DD2080EDB6A090EDB6A110E57
:10280000DBCFE9FF120EDBCFEAFFEFCFDFFFDF50B8
:1028100014E0D7DB12E2E4DB03E1151C01E168D22E
:1028200067DB01E3DB2A090EDB2A110EDB2ADBCF93
:10283000E9FF120EE8E3DB2AE6D77DDA01E15ED29A
:1028400057D2030EDB8E070EDB0410E195DB040E7E
:102850005ADB0A0EEECFDBFF0B0EEECFDBFF0C0ECA
:10286000EECFDBFF0D0EEECFDBFF6CD0070EDB50A3
:1028700003082CE1030EDBAE0DD0B2DA020E76DADD
:10288000EFCF14F0156A166A176A14AE39D01568BE
:10289000166835D0F70EDBCF15F0F80EDBCF16F04B
:1028A000020E155E000E165AF70E15C0DBFFF80E6D
:1028B00016C0DBFF15C0E9FF16C0EAFFEFCF14F02A
:1028C0000A0E14C0DBFF0B0EDB6A38D0070EDB509C
:1028D000020809E1030EDBAE04D059DB16AE10D0BE
:1028E0000ED055DB0DD0030EDBAE12D079DA020E1E
:1028F0003DDAF9DA166A176A15AE02D0166817685B
:10290000E2DA0C0E16C0DBFF0D0E17C0DBFF1AD08B
:10291000F70EDBCF16F0F80EDBCF17F0020E165EC7
:10292000000E175AF70E16C0DBFFF80E17C0DBFFBC
:1029300016C0E9FF17C0EAFFD6DAC5DA0C0EDB6A6B
:102940000D0EDB6A060EDB5005E1010EF36E050E7F
:10295000F3CFDBFF150EDB6A160EDB6AD950370F9B
:10296000146E000EDA20156E390E14C0DBFF3A0E1D
:1029700015C0DBFF380EDB6A080EDB6A0A0EAEDA22
:10298000DF50780A12E0200A10E0280A0CE0200A42
:102990000AE03F0A06E00D0A02E0200A08E1020E02
:1029A00005D0080E03D0080EDF26100E97DA030EAE
:1029B000DBBE02D0DB92DB94DB50800B24E08ADAB2
:1029C000D890030EEB50000A08E6000EEE5C000EF5
:1029D000EE58000EEE58000EEE5815E213DA0B68B2
:1029E0000C680D680E68C7EC1DF00A0E02C0DBFF14
:1029F0000B0E03C0DBFF0C0E04C0DBFF0D0E05C089
:102A0000DBFF2D0E08D0030EDBA202D02B0E03D06D
:102A1000DBA408D0200EF36E170EF3CFDBFF150EEC
:102A2000DB2A02D0170EDB6A050EDB5003E1B7D9B3
:102A300001E189D0C20E146E3C0E156E000E166EAA
:102A4000070EDBCF17F0186A196A1A6A17C00BF065
:102A500018C00CF019C00DF01AC00EF0D3D9FFEC5D
:102A60001DF014500224F36E15500320F46E16501E
:102A70000420F86EF4CFF7FFF3CFF6FF0800090E3D
:102A8000F5CFDBFF580EDF5C0FE1610EF36E090E30
:102A90007BD90AE3200E146E090EDBCFE7FF14503A
:102AA000E75E090EE7CFDBFF070EDBCF14F0156AF8
:102AB000166A176A0FDA14C00BF015C00CF016C0B6
:102AC0000DF017C00EF0EECF06F0EECF07F0EECF10
:102AD00008F0EFCF09F0FFEC1DF009C0EDFF08C0D2
:102AE000EDFF07C0EDFF06C0EFFF390EDBCFE9FFBA
:102AF000DB063A0EDBCFEAFF01E2DB06090EDBCF95
:102B0000EFFF150EDB2A4BD995E1030EDBA61DD096
:102B10006F0EDF5C06E1C1D918E3150EDB285BDA26
:102B200014D0780EDF5C09E0580EDF5C06E0620E20
:102B3000DF5C03E0420EDF5C08E1020EF36E160E6E
:102B4000F3CFDBFF02D0150EDB6A030EDB50100B58
:102B50000EE0040EDBCF14F0050EDB50D8801454C9
:102B600006E2060EDB5003E1040EDB5034DA95D9A1
:102B70000AE2050EDBCFE7FF150EDB50E75E050E20
:102B8000E7CFDBFF02D0050EDB6A040EDBCF14F0CB
:102B9000160E45D9D880145414E2160EDBCFE6FF8A
:102BA000150EDBCFE6FF040EDBCFE6FF050EDB5094
:102BB000E552E75CE552D880E754E552D880E75407
:102BC0005FD9030EDB50010B0BE1080EDB5008E070
:102BD000B2D801E08DD0080EDB50BED8080EDB6AFB
:102BE000170EDB5007E088D9170EF1D903E1151C49
:102BF00001E17ED0160EDB5016E07ED9300EE66E77
:102C00009FD802E1151C74E077D9DFCFE6FF85EC91
:102C10001DF0E552E552E552F4CF15F00001F31C2A
:102C200002E1151C65E0050EDBCF14F0160EDB503B
:102C3000D880145409E2050EDBCFE7FF160EDB50F7
:102C4000E75E050EE7CFDBFF300EE66E050ECBD953
:102C50004FE1390EDB2ADBCFE9FF3A0E01E3DB2A35
:102C6000DBCFEAFF090EEFCFDBFFDB500EE044D9EC
:102C7000090EADD902E1151C3BE0390EDB2ADBCF92
:102C8000E9FF3A0EEDE3DB2AEBD755D831E1160E1A
:102C9000DBCFE6FF080EC3D8E552E7245DD82ED07F
:102CA000070EDB50030A1CE0010A14E0030A07E0E8
:102CB0007BD9DBCFEEFF020EDBCFEDFF1FD0F5D8C7
:102CC000196A17AE02D0186819682CD8BCD819C078
:102CD000EEFF14D0EAD817BE186824D8B4D80ED0A6
:102CE00063D9DBCFEFFF0AD07BD905E1151C03E1E7
:102CF000F368F46810D0FCD801E3DB2A79D91DEF22
:102D000012F0010EDBCF14F0020EDBCF15F014C071
:102D1000F3FF15C0F4FF3B0EE15C02E2E16AE5520D
:102D2000E16ECBD029D9020E83EF17F061D90800EC
:102D3000F550DF6E1200200EE66E080EF3EF17F06E
:102D400085EC1DF0E552E552E552F3CF14F0F4CFD7
:102D500015F00001F31C1200146E156AD950010F12
:102D60004DD91450EE261550ED221200185E000EBB
:102D7000195AF70E18C0DBFFF80E19C0DBFF18C098
:102D8000E9FF19C0EAFF1200DBCFF4FFF350F45C57
:102D90001200DB50E76E040EE7CFDBFF12000A0ED5
:102DA000DBCF14F00B0EDBCF15F00C0EDBCF16F0E3
:102DB0000D0EDBCF17F0145015101610171012005F
:102DC000130EEECFDBFF140EEDCFDBFF130EDBCFC8
:102DD00014F0140EDBCF15F00001800E1514120054
:102DE000F70EDBCF18F0F80EDBCF19F01200050E4E
:102DF000DB50E66ED950130F01D9E552E750EE6E65
:102E0000ED6A12000A0EDBCF06F00B0EDBCF07F0E7
:102E10000C0EDBCF08F00D0EDBCF09F01200DBCF7C
:102E2000E6FF150EDBCFE6FF050EDB50E552E7248B
:102E3000E552E7241200DB50CED8010EF36E060EE9
:102E4000F3CFDBFF1200EE50EFCFEAFFE96E16C0C2
:102E5000EEFF17C0EEFF18C0EEFF1200D9CFE6FF5D
:102E6000DACFE6FFE1CFD9FFE2CFDAFF1200DFCF02
:102E7000E6FFE66A23EC1EF0E552E552F35012003D
:102E8000E76E080EE7CFDBFF1200EECF14F0EECFB7
:102E900015F0EFCF16F0176A1200050EDBCF14F015
:102EA000150EDB50D88014541200010EDBCF16F043
:102EB000020EDBCF17F0186A1200E552E5CFDAFFF9
:102EC000E7CFD9FF12000A0E14C0DBFF0B0E15C0AE
:102ED000DBFF1200D9500A0FFEEF17F0F36E070E5A
:102EE000F3CFDBFF1200EECF14F0EFCF15F012009E
:102EF000010EDB2A020E1200FC0EDBCFE6FFFD0EF8
:102F0000DBCFE6FF1200145E000E155AF70E14C058
:102F1000DBFFF80E15C0DBFF14C0E9FF15C0EAFFA8
:102F20001200DA20EA6EEF2AEECFF6FF000EEF2253
:102F3000EECFF7FFEF22EECFF8FF1200040EDBCF4B
:102F4000E6FF130EDB50E552E75C9ADFDB5004DF4F
:102F5000060EDB501200090EDB500A0DF350DF2481
:102F6000D00FE76E090EE7CFDBFF96EF16F0DB50D0
:102F7000F36E050EC4EF16F0F70EDBCF14F0F80E6B
:102F8000DBCF15F01200DFCFE6FFA0EF16F028DF51
:102F9000030EECDE45EF17F0F2EC11F0E552E552CE
:102FA000E552E55200091200BDDEEE50EFCFEAFF18
:102FB000E96E010E1200130EDB50F36E040EC4EF27
:102FC00016F0040EDB50F36E090EC4EF16F0DBCFE3
:102FD000E6FFA0EF16F0E76E050EE7CFDBFF12006D
:102FE0008BDFC3EF17F0DBCFE6FF86DFCCEF17F008
:102FF000D950F90FE96EFF0E91EF17F0E96E000E50
:06300000DA20EA6E120066
:0A300600DACFE4FFE2CFDAFFE65272
:10301000E552E5CFDAFF1100D8CFE4FFE0CFE4FFBF
:10302000E46EDACFE4FFE2CFDAFFE652E552E5CF15
:10303000DAFFE550E5CFE0FFE5CFD8FF100050D82C
:10304000ECEC19F08980EA0EE66E3A0EE66E000EA0
:10305000E66E000EE66E010EE66E46EC1CF0146E97
:10306000050EE15E1450000EE66E010EE66EF4EC05
:1030700019F0E552E552B50EE66E3A0EE66E000E18
:10308000E66E000EE66E010EE66E46EC1CF0146E67
:10309000050EE15E1450000EE66E010EE66EF4ECD5
:1030A00019F0E552E5529D0EE66E3A0EE66E000E00
:1030B000E66E000EE66E010EE66E46EC1CF0146E37
:1030C000050EE15E1450000EE66E010EE66EF4ECA5
:1030D00019F0E552E552A8EC08F01BD8FCD7120015
:1030E0000F0EC16E926A936A946A956A966A806AB4
:1030F000816A826A836A846A02D81CEF08F0010E32
:103100008916921692820001F06BF16BF26BF36BF1
:103110001200200E0101E76E4219E8AE02D0E7343A
:1031200002D0E750425D03E36D50020B01E0C5D0D1
:103130000001F051F11102E1000E08D0F0C0E9FFEA
:10314000F1C0EAFFEF50800B01E0010E000901E041
:10315000B4D005010051820A76E0030A4BE0010A6F
:103160002FE0900A01E096D0400EE66E050EE66E66
:103170008DEC1AF0E552E5520001F251F31102E133
:10318000000E08D0F2C0E9FFF3C0EAFFEF50800B59
:1031900001E0010E000913E1400EE66E400EE66EFE
:1031A000050EE66E010EE66EE66E17EC11F0146E7B
:1031B000050EE15E1450F3CFF2F0F4CFF3F06AD0D5
:1031C000700EE66E3A0EE66E000EE66E000EE66ECD
:1031D000010EE66E46EC1CF0146E050EE15E145016
:1031E000000EE66E010EE66EF4EC19F0E552E552C3
:1031F000897050D08050020B01E0010E406F000139
:10320000F251F31102E1000E08D0F2C0E9FFF3C061
:10321000EAFFEF50800B01E0010E000913E1400EC0
:10322000E66E400EE66E050EE66E010EE66EE66E8A
:1032300017EC11F0146E050EE15E1450F3CFF2F0AE
:10324000F4CFF3F027D08950010B406F0001F25109
:10325000F31102E1000E08D0F2C0E9FFF3C0EAFF6B
:10326000EF50800B01E0010E000913E1400EE66E05
:10327000400EE66E050EE66E010EE66EE66E17EC8B
:1032800011F0146E050EE15E1450F3CFF2F0F4CF9E
:10329000F3F000D0400EE66E000EE66E050EE66E10
:1032A000E66A010EE66E17EC11F0146E050EE15E93
:1032B0001450F3CFF0F0F4CFF1F01200120012002E
:1032C0001200120076EF1BF012001E0EE66E010EC9
:1032D000E66E70EC10F0E552E552400EE66E000E20
:1032E000E66E050EE66EE66A010EE66E17EC11F06C
:1032F000146E050EE15E1450F3CFF0F0F4CFF1F050
:103300001200010163051EE1010164051BE1D7DF25
:103310006D920101646B0101100E406F0E0E416F42
:103320004007000E415B40514111FAE16D84080EE7
:10333000406F070E416F4007000E415B4051411145
:10334000FAE16D941200D9CFE6FFE1CFD9FFFD0E6F
:10335000DBCF08F0FE0EDBCF09F0E868081802E1C9
:103360007F0E091831E0030E081801E109502AE028
:10337000020E081801E1095023E0010E081801E1CE
:1033800009501CE0740E081801E1095015E0750E93
:10339000081801E109500EE0730E081801E1095008
:1033A00007E0720E081801E1095001E00FD00ED0BD
:1033B00087DF0CD083DF0AD082DF08D086DF06D01B
:1033C00083DF04D07FDF02D07CDF00D0010E00D08D
:0833D000E552E7CFD9FF12001E
:0833D8000001606B616B626B88
:1033E000636B646B656B1200D9CFE6FFE1CFD9FF49
:1033F000020EE126FD0EDBCFE6FFFE0EDBCFE6FF81
:1034000005EC1DF0E552E55200016451F324146E01
:103410006551F420156E7E0E145C000E155801E304
:1034200072D0DE6ADD6ADECF14F0DDCF15F014C095
:10343000E6FF15C0E6FFFD0EDBCFE6FFFE0EDBCF9D
:10344000E6FF05EC1DF0E552E552E552E7CF15F039
:10345000E552E7CF14F0F3CF16F0F4CF17F0165083
:10346000145C1750155828E2FD0EDBCF14F0FE0E49
:10347000DBCF15F0DE501424E96EDD501520EA6E26
:10348000EF50E66E660E00016225E96E000E6321C4
:10349000EA6EE552E750EF6E010E6225626F000E94
:1034A0006321636F636B629F642B000E6523DF2AC9
:1034B000010E01E3DB2AB7D7660E00016225E96E33
:1034C000000E6321EA6E0D0EEF6E010E6225626F33
:1034D000000E6321636F636B629F642B000E652394
:1034E000660E6225E96E000E6321EA6E0A0EEF6E2B
:1034F000010E6225626F000E6321636F636B629F32
:10350000642B000E6523020EE15C02E2E16AE552E3
:10351000E16EE552E7CFD9FF1200D9CFE6FFE1CF48
:10352000D9FF040EE126DE6ADD6A00013F0ED88075
:103530006455000E655504E23F0EDE6EDD6A04D070
:1035400064C0DEFF65C0DDFFDECF14F0DDCF15F017
:103550001406000E155AFD0EDBCFE9FFFE0EDBCF81
:10356000EAFF14C0EFFF6451651140E0010EF36EF5
:10357000020EF3CFDBFF030EDB6A020EDBCF14F08B
:10358000030EDBCF15F0DECF16F0DDCF17F01650AF
:10359000145C175015582AE2660E6025E96E000E7D
:1035A0006121EA6EEF50E66E020EDBCF14F0030EDF
:1035B000DBCF15F0FD0EDB501424E96EFE0EDB5060
:1035C0001520EA6EE552E750EF6E010E6025606F40
:1035D000000E6121616F616B609F6407000E655B87
:1035E000020EDB2A030E01E3DB2AC7D7040EE15CDF
:1035F00002E2E16AE552E16EE552E7CFD9FF12003F
:1036000009C013F008C012F007C011F007500C02F7
:10361000F4CF05F0F3CF04F008500D02F4CF07F01B
:10362000F3CF06F00C02F3500526F4500622E86AA8
:10363000072211500D02F3500526F4500622E86AC5
:10364000072209500C02F3500626F45007220950B5
:103650000D02086AE86A0822F3500726F45008228F
:1036600011500E02F3500626F4500722096AE86A48
:103670000822092212500E02F3500726F4500822A5
:10368000E86A092213500E02F3500826F45009226A
:10369000000C09C013F008C012F008500D02F4CF5E
:1036A00007F0F3CF06F009500E02F4CF09F0F3CF84
:1036B00008F00D02F3500726F4500822E86A0922A8
:1036C00012500E02F3500726F4500822E86A09222D
:1036D0000EAE6FEF1BF01250085E1350095A13AE76
:0C36E000000C0D50085E0E50095A000C42
:0436EC000401205164
:1036F0001F0B010801E06CD0245101E069D0060ED7
:10370000215D29E12351230A25E0010A13E0030A80
:1037100001E021D0010143050CE10101F60E536FD8
:10372000370E546F000E556F090E576F586BC00E51
:10373000566F11D0010143050CE10101610E536F79
:10374000380E546F000E556F1C0E576F586BC00E1D
:10375000566F01D000D004012051600BE842E842CE
:10376000E842E842E842010801E032D021510B0A68
:1037700029E0080A1CE0090A14E0080A07E00B0A1D
:1037800004E0080A01E024D023D022D00101F50E84
:10379000536F000E546F010E576F586BC10E566F6A
:1037A00017D00101800E566F23C4F5F011D001012E
:1037B000F60E536F000E546F010E576F586B810E4B
:1037C000566F06D00101800E566F22C4F6F000D06D
:0237D0001200E5
:0E37D2001201000200000008D80442000200AC
:1037E0000102030109022900010100C0320904009D
:1037F000000203000000092111010001221C000742
:10380000058103400001070501034000010403098D
:10381000041603530069006D006F006E002000491C
:10382000006E006E0073002A035700460046002019
:1038300000470065006E00650072006900630020AB
:10384000004800490044002000640065006D006FDE
:103850000010035700460046005F0033002E003082
:10386000000600FF0901A1011901294015012540A9
:10387000750895408100190129409100C0E4370086
:0C3880000D3800113800273800513800C6
:04388C00D9CFE6FFAB
:10389000DACFE6FFE1CFD9FFE2CFDAFFE652E65218
:1038A000E652E652D950F90F146EFF0EDA20156E6B
:1038B000020E14C0DBFF030E15C0DBFF020EDBCFD0
:1038C000E6FF030EDBCFE6FFF90EDBCFE6FFFA0ED5
:1038D000DBCFE6FFFB0EDBCFE6FFD950FC0FE66E39
:1038E000FF0EDA20E66E08EC12F0146E070EE15CB3
:1038F00002E2E16AE552E16E1450F3CFDEFFF4CF4D
:10390000DDFFFC0EDBCFE9FFFD0EDBCFEAFFEF6A48
:10391000DECF14F0DDCF15F014C0F3FF15C0F4FFB7
:10392000040EE15C02E2E16AE552E16EE552E5CFA8
:08393000DAFFE7CFD9FF120016
:083938002A0EF66E100EF76E68
:10394000000EF86E00010900F550EB6F0900F5500C
:10395000EC6F03E1EB6701D03DD00900F550E66F55
:103960000900F550E76F0900F550E86F09000900FC
:10397000F550E96E0900F550EA6E090009000900EA
:10398000F550E96F0900F550EA6F09000900F6CF1C
:10399000EDF0F7CFEEF0F8CFEFF0E6C0F6FFE7C0BE
:1039A000F7FFE8C0F8FF0001E95302E1EA5307E03E
:1039B0000900F550EE6EE907F8E2EA07F9D7EDC025
:1039C000F6FFEEC0F7FFEFC0F8FF0001EB07000EB7
:0639D000EC5BBFD7120002
:0A39D600FE0EE3CFE9FFFF0EE3CF82
:1039E000EAFFE9CFF3FFEACFF4FFFB0EE35003E178
:1039F000FC0EE35009E0FB0EE30602E2FC0EE306D8
:103A0000FD0EE350EE6EF1D71200FE0EE3CFE9FF9C
:103A1000FF0EE3CFEAFFF36AF46AEE5203E0F34AE3
:103A2000F42AFBD71200FF0EE3CFF8FFE552FF0E9A
:103A3000E3CFF7FFE552FF0EE3CFF6FFE552E66A6C
:103A4000E66AE66A0900F55209E0FD0EE32A05E19F
:103A5000FE0EE32A02E1FF0EE32AF4D7FD0EE3CFC8
:103A600007F0FE0EE3CF08F0FF0EE3CF09F01200DF
:103A7000526563656976656420636F6D6D616E6420
:103A800020307838302066726F6D20686F73742034
:103A90002D20546F67676C65204C45440055534298
:103AA0002044657669636520496E697469616C6953
:103AB0007365642E00284329323031312053696DFB
:103AC0006F6E20496E6E73202D20687474703A2FCB
:103AD0002F7777772E77616974696E67666F726684
:103AE00072696461792E636F6D005553422047659A
:103AF0006E65726963204849442044656D6F6E733A
:0A3B000074726174696F6E20330067
:063B0A00D9CFE6FFDACF7F
:103B1000E6FFE1CFD9FFE2CFDAFFFB0EDBCF14F0F7
:103B2000FC0EDBCF15F00001800E15141AE1FB0E20
:103B3000DBCFE9FFFC0EDBCFEAFFEECFF3FFEDCFEB
:103B4000F4FFEE2A000EEF22F3CFE9FFF4CFEAFFF5
:103B5000FD0EDBCFEFFFEF50156AF36E15C0F4FFDB
:103B600010D0FB0EDB50FE0806E1FD0EDBCFE6FFBA
:103B700053EC1EF005D0FD0EDBCFE6FF6AEC1EF025
:0E3B8000E552E552E5CFDAFFE7CFD9FF12009C
:023B8E000650DF
:103B90000B02F3CF02F0F4CF03F00C02F350032634
:103BA000000EF420046E06500D02F3500426000EA1
:103BB000F420056E06500E02F350052607500B0246
:103BC000F3500326F4500422000E052207500C0285
:103BD000F3500426F450052207500D02F350052639
:103BE00008500B02F3500426F450052208500C0232
:0E3BF000F350052609500B02F3500526120073
:023BFE00056A56
:103C0000046A036A026A200EE76ED8900636073609
:103C10000836093602360336043605360B50025C88
:103C20000C5003580D5004580E50055809E30B5022
:103C3000025E0C50035A0D50045A0E50055A062AC3
:063C4000E72EE4D712009C
:0A3C4600F36AF46AFF0EE124E96E50
:103C5000FF0EE220EA6EED6607D02F0EEF6404D06F
:0A3C60003A0EEF6001D0F32A1200C3
:063C6A00000EF36E00EEF7
:103C700000F0080E01D81200EA6002D0EE6AFCD70C
:0A3C8000F350E9601200EE6AFCD771
:063C8A0013EE00F023EE32
:103C900000F0F86A019C9CEC1CF06BEC1EF01FEC31
:063CA00018F0FBD7120032
:0A3CA600FF0EE350ACBA04D0AF6A81
:103CB000AB8EAC8A949CACA2FED7AD6EF36EF46A68
:023CC0001200F0
:0E3CC20030313233343536373839616263645D
:033CD00065660026
:023CD4001200DC
:023CD6001200DA
:053CD8000000000001E6
:020000040030CA
:0100000024DB
:010001000EF0
:010002003FBE
:010003001EDE
:010005008179
:010006008178
:010008000FE8
:01000900C036
:01000A000FE6
:01000B00E014
:01000C000FE4
:01000D0040B2
:00000001FF
